{
  "_format": "hh-sol-artifact-1",
  "contractName": "CTF",
  "sourceName": "contracts/CTF.sol",
  "abi": [
    {
      "inputs": [
        {
          "internalType": "string",
          "name": "name_",
          "type": "string"
        },
        {
          "internalType": "string",
          "name": "symbol_",
          "type": "string"
        }
      ],
      "stateMutability": "payable",
      "type": "constructor"
    },
    {
      "anonymous": false,
      "inputs": [
        {
          "indexed": true,
          "internalType": "address",
          "name": "owner",
          "type": "address"
        },
        {
          "indexed": true,
          "internalType": "address",
          "name": "spender",
          "type": "address"
        },
        {
          "indexed": false,
          "internalType": "uint256",
          "name": "value",
          "type": "uint256"
        }
      ],
      "name": "Approval",
      "type": "event"
    },
    {
      "anonymous": false,
      "inputs": [
        {
          "indexed": true,
          "internalType": "address",
          "name": "addr",
          "type": "address"
        },
        {
          "indexed": false,
          "internalType": "string",
          "name": "reason",
          "type": "string"
        }
      ],
      "name": "Banned",
      "type": "event"
    },
    {
      "anonymous": false,
      "inputs": [
        {
          "indexed": false,
          "internalType": "uint256",
          "name": "challengeId",
          "type": "uint256"
        },
        {
          "indexed": true,
          "internalType": "address",
          "name": "creator",
          "type": "address"
        },
        {
          "indexed": false,
          "internalType": "bool",
          "name": "status",
          "type": "bool"
        }
      ],
      "name": "Created",
      "type": "event"
    },
    {
      "anonymous": false,
      "inputs": [
        {
          "indexed": true,
          "internalType": "address",
          "name": "previousOwner",
          "type": "address"
        },
        {
          "indexed": true,
          "internalType": "address",
          "name": "newOwner",
          "type": "address"
        }
      ],
      "name": "OwnershipTransferred",
      "type": "event"
    },
    {
      "anonymous": false,
      "inputs": [
        {
          "indexed": false,
          "internalType": "uint256",
          "name": "challengeId",
          "type": "uint256"
        },
        {
          "indexed": true,
          "internalType": "address",
          "name": "solver",
          "type": "address"
        },
        {
          "indexed": false,
          "internalType": "uint256",
          "name": "score",
          "type": "uint256"
        }
      ],
      "name": "Solved",
      "type": "event"
    },
    {
      "anonymous": false,
      "inputs": [
        {
          "indexed": true,
          "internalType": "address",
          "name": "from",
          "type": "address"
        },
        {
          "indexed": true,
          "internalType": "address",
          "name": "to",
          "type": "address"
        },
        {
          "indexed": false,
          "internalType": "uint256",
          "name": "value",
          "type": "uint256"
        }
      ],
      "name": "Transfer",
      "type": "event"
    },
    {
      "anonymous": false,
      "inputs": [
        {
          "indexed": true,
          "internalType": "address",
          "name": "addr",
          "type": "address"
        },
        {
          "indexed": false,
          "internalType": "string",
          "name": "reason",
          "type": "string"
        }
      ],
      "name": "Unbanned",
      "type": "event"
    },
    {
      "inputs": [
        {
          "internalType": "address",
          "name": "",
          "type": "address"
        },
        {
          "internalType": "address",
          "name": "",
          "type": "address"
        }
      ],
      "name": "allowance",
      "outputs": [
        {
          "internalType": "uint256",
          "name": "",
          "type": "uint256"
        }
      ],
      "stateMutability": "pure",
      "type": "function"
    },
    {
      "inputs": [
        {
          "internalType": "address",
          "name": "spender",
          "type": "address"
        },
        {
          "internalType": "uint256",
          "name": "amount",
          "type": "uint256"
        }
      ],
      "name": "approve",
      "outputs": [
        {
          "internalType": "bool",
          "name": "",
          "type": "bool"
        }
      ],
      "stateMutability": "nonpayable",
      "type": "function"
    },
    {
      "inputs": [
        {
          "internalType": "address",
          "name": "",
          "type": "address"
        }
      ],
      "name": "balanceOf",
      "outputs": [
        {
          "internalType": "uint256",
          "name": "",
          "type": "uint256"
        }
      ],
      "stateMutability": "view",
      "type": "function"
    },
    {
      "inputs": [
        {
          "internalType": "address",
          "name": "addr",
          "type": "address"
        },
        {
          "internalType": "string",
          "name": "reason",
          "type": "string"
        }
      ],
      "name": "ban",
      "outputs": [],
      "stateMutability": "nonpayable",
      "type": "function"
    },
    {
      "inputs": [
        {
          "internalType": "uint256",
          "name": "challenge_id",
          "type": "uint256"
        },
        {
          "internalType": "uint256",
          "name": "score",
          "type": "uint256"
        },
        {
          "internalType": "uint256",
          "name": "flagHash",
          "type": "uint256"
        },
        {
          "internalType": "bool",
          "name": "status",
          "type": "bool"
        }
      ],
      "name": "createChallenge",
      "outputs": [
        {
          "internalType": "uint256",
          "name": "",
          "type": "uint256"
        }
      ],
      "stateMutability": "nonpayable",
      "type": "function"
    },
    {
      "inputs": [],
      "name": "decimals",
      "outputs": [
        {
          "internalType": "uint8",
          "name": "",
          "type": "uint8"
        }
      ],
      "stateMutability": "view",
      "type": "function"
    },
    {
      "inputs": [],
      "name": "deleteContract",
      "outputs": [],
      "stateMutability": "nonpayable",
      "type": "function"
    },
    {
      "inputs": [
        {
          "internalType": "uint256",
          "name": "challenge_id",
          "type": "uint256"
        }
      ],
      "name": "getChallenge",
      "outputs": [
        {
          "components": [
            {
              "internalType": "uint256",
              "name": "flagHash",
              "type": "uint256"
            },
            {
              "internalType": "uint256",
              "name": "score",
              "type": "uint256"
            },
            {
              "internalType": "address",
              "name": "creator",
              "type": "address"
            },
            {
              "internalType": "uint256",
              "name": "totalSolvers",
              "type": "uint256"
            },
            {
              "internalType": "bool",
              "name": "status",
              "type": "bool"
            }
          ],
          "internalType": "struct CTF.ChallengeInfo",
          "name": "",
          "type": "tuple"
        }
      ],
      "stateMutability": "view",
      "type": "function"
    },
    {
      "inputs": [],
      "name": "name",
      "outputs": [
        {
          "internalType": "string",
          "name": "",
          "type": "string"
        }
      ],
      "stateMutability": "view",
      "type": "function"
    },
    {
      "inputs": [],
      "name": "owner",
      "outputs": [
        {
          "internalType": "address",
          "name": "",
          "type": "address"
        }
      ],
      "stateMutability": "view",
      "type": "function"
    },
    {
      "inputs": [],
      "name": "renounceOwnership",
      "outputs": [],
      "stateMutability": "nonpayable",
      "type": "function"
    },
    {
      "inputs": [
        {
          "internalType": "uint256",
          "name": "challenge_id",
          "type": "uint256"
        },
        {
          "internalType": "bool",
          "name": "status",
          "type": "bool"
        }
      ],
      "name": "setChallengeStatus",
      "outputs": [],
      "stateMutability": "nonpayable",
      "type": "function"
    },
    {
      "inputs": [
        {
          "internalType": "string",
          "name": "name_",
          "type": "string"
        },
        {
          "internalType": "string",
          "name": "symbol_",
          "type": "string"
        }
      ],
      "name": "setTokenInfo",
      "outputs": [],
      "stateMutability": "nonpayable",
      "type": "function"
    },
    {
      "inputs": [
        {
          "internalType": "uint256",
          "name": "challenge_id",
          "type": "uint256"
        },
        {
          "internalType": "uint256[]",
          "name": "proof",
          "type": "uint256[]"
        }
      ],
      "name": "solveChallenge",
      "outputs": [
        {
          "internalType": "bool",
          "name": "",
          "type": "bool"
        }
      ],
      "stateMutability": "nonpayable",
      "type": "function"
    },
    {
      "inputs": [],
      "name": "symbol",
      "outputs": [
        {
          "internalType": "string",
          "name": "",
          "type": "string"
        }
      ],
      "stateMutability": "view",
      "type": "function"
    },
    {
      "inputs": [],
      "name": "totalSupply",
      "outputs": [
        {
          "internalType": "uint256",
          "name": "",
          "type": "uint256"
        }
      ],
      "stateMutability": "view",
      "type": "function"
    },
    {
      "inputs": [
        {
          "internalType": "address",
          "name": "to",
          "type": "address"
        },
        {
          "internalType": "uint256",
          "name": "amount",
          "type": "uint256"
        }
      ],
      "name": "transfer",
      "outputs": [
        {
          "internalType": "bool",
          "name": "",
          "type": "bool"
        }
      ],
      "stateMutability": "nonpayable",
      "type": "function"
    },
    {
      "inputs": [
        {
          "internalType": "address",
          "name": "from",
          "type": "address"
        },
        {
          "internalType": "address",
          "name": "to",
          "type": "address"
        },
        {
          "internalType": "uint256",
          "name": "amount",
          "type": "uint256"
        }
      ],
      "name": "transferFrom",
      "outputs": [
        {
          "internalType": "bool",
          "name": "",
          "type": "bool"
        }
      ],
      "stateMutability": "nonpayable",
      "type": "function"
    },
    {
      "inputs": [
        {
          "internalType": "address",
          "name": "newOwner",
          "type": "address"
        }
      ],
      "name": "transferOwnership",
      "outputs": [],
      "stateMutability": "nonpayable",
      "type": "function"
    },
    {
      "inputs": [
        {
          "internalType": "address",
          "name": "addr",
          "type": "address"
        },
        {
          "internalType": "string",
          "name": "reason",
          "type": "string"
        }
      ],
      "name": "unban",
      "outputs": [],
      "stateMutability": "nonpayable",
      "type": "function"
    },
    {
      "inputs": [
        {
          "internalType": "uint256[2]",
          "name": "a",
          "type": "uint256[2]"
        },
        {
          "internalType": "uint256[2][2]",
          "name": "b",
          "type": "uint256[2][2]"
        },
        {
          "internalType": "uint256[2]",
          "name": "c",
          "type": "uint256[2]"
        },
        {
          "internalType": "uint256[2]",
          "name": "input",
          "type": "uint256[2]"
        }
      ],
      "name": "verifyProof",
      "outputs": [
        {
          "internalType": "bool",
          "name": "r",
          "type": "bool"
        }
      ],
      "stateMutability": "view",
      "type": "function"
    }
  ],
  "bytecode": "0x60806040526000600560006101000a81548160ff021916908360ff160217905550604051620042fe380380620042fe8339818101604052810190620000459190620002f0565b62000065620000596200009160201b60201c565b6200009960201b60201c565b8160039081620000769190620005c0565b508060049081620000889190620005c0565b505050620006a7565b600033905090565b60008060009054906101000a900473ffffffffffffffffffffffffffffffffffffffff169050816000806101000a81548173ffffffffffffffffffffffffffffffffffffffff021916908373ffffffffffffffffffffffffffffffffffffffff1602179055508173ffffffffffffffffffffffffffffffffffffffff168173ffffffffffffffffffffffffffffffffffffffff167f8be0079c531659141344cd1fd0a4f28419497f9722a3daafe3b4186f6b6457e060405160405180910390a35050565b6000604051905090565b600080fd5b600080fd5b600080fd5b600080fd5b6000601f19601f8301169050919050565b7f4e487b7100000000000000000000000000000000000000000000000000000000600052604160045260246000fd5b620001c6826200017b565b810181811067ffffffffffffffff82111715620001e857620001e76200018c565b5b80604052505050565b6000620001fd6200015d565b90506200020b8282620001bb565b919050565b600067ffffffffffffffff8211156200022e576200022d6200018c565b5b62000239826200017b565b9050602081019050919050565b60005b838110156200026657808201518184015260208101905062000249565b60008484015250505050565b600062000289620002838462000210565b620001f1565b905082815260208101848484011115620002a857620002a762000176565b5b620002b584828562000246565b509392505050565b600082601f830112620002d557620002d462000171565b5b8151620002e784826020860162000272565b91505092915050565b600080604083850312156200030a576200030962000167565b5b600083015167ffffffffffffffff8111156200032b576200032a6200016c565b5b6200033985828601620002bd565b925050602083015167ffffffffffffffff8111156200035d576200035c6200016c565b5b6200036b85828601620002bd565b9150509250929050565b600081519050919050565b7f4e487b7100000000000000000000000000000000000000000000000000000000600052602260045260246000fd5b60006002820490506001821680620003c857607f821691505b602082108103620003de57620003dd62000380565b5b50919050565b60008190508160005260206000209050919050565b60006020601f8301049050919050565b600082821b905092915050565b600060088302620004487fffffffffffffffffffffffffffffffffffffffffffffffffffffffffffffffff8262000409565b62000454868362000409565b95508019841693508086168417925050509392505050565b6000819050919050565b6000819050919050565b6000620004a16200049b62000495846200046c565b62000476565b6200046c565b9050919050565b6000819050919050565b620004bd8362000480565b620004d5620004cc82620004a8565b84845462000416565b825550505050565b600090565b620004ec620004dd565b620004f9818484620004b2565b505050565b5b81811015620005215762000515600082620004e2565b600181019050620004ff565b5050565b601f82111562000570576200053a81620003e4565b6200054584620003f9565b8101602085101562000555578190505b6200056d6200056485620003f9565b830182620004fe565b50505b505050565b600082821c905092915050565b6000620005956000198460080262000575565b1980831691505092915050565b6000620005b0838362000582565b9150826002028217905092915050565b620005cb8262000375565b67ffffffffffffffff811115620005e757620005e66200018c565b5b620005f38254620003af565b6200060082828562000525565b600060209050601f83116001811462000638576000841562000623578287015190505b6200062f8582620005a2565b8655506200069f565b601f1984166200064886620003e4565b60005b8281101562000672578489015182556001820191506020850194506020810190506200064b565b868310156200069257848901516200068e601f89168262000582565b8355505b6001600288020188555050505b505050505050565b613c4780620006b76000396000f3fe608060405234801561001057600080fd5b50600436106101375760003560e01c80638da5cb5b116100b8578063bf67677d1161007c578063bf67677d1461033e578063da262f581461035a578063dd62ed3e14610376578063ed5e0846146103a6578063f2fde38b146103d6578063f5c9d69e146103f257610137565b80638da5cb5b14610286578063925e29d3146102a457806393698ed8146102d457806395d89b41146102f0578063a9059cbb1461030e57610137565b8063313ce567116100ff578063313ce5671461020857806332ba325b146102265780635a58cd4c1461024257806370a082311461024c578063715018a61461027c57610137565b806306fdde031461013c578063095ea7b31461015a57806318160ddd1461018a5780631bdd4b74146101a857806323b872dd146101d8575b600080fd5b610144610422565b6040516101519190612683565b60405180910390f35b610174600480360381019061016f919061274d565b6104b0565b60405161018191906127a8565b60405180910390f35b6101926104ed565b60405161019f91906127d2565b60405180910390f35b6101c260048036038101906101bd91906127ed565b6104f3565b6040516101cf91906128af565b60405180910390f35b6101f260048036038101906101ed91906128ca565b610628565b6040516101ff91906127a8565b60405180910390f35b610210610665565b60405161021d9190612939565b60405180910390f35b610240600480360381019061023b9190612980565b610678565b005b61024a61079b565b005b610266600480360381019061026191906129c0565b6107bc565b60405161027391906127d2565b60405180910390f35b6102846107d4565b005b61028e6107e8565b60405161029b91906129fc565b60405180910390f35b6102be60048036038101906102b99190612a17565b610811565b6040516102cb91906127d2565b60405180910390f35b6102ee60048036038101906102e99190612bb3565b61098f565b005b6102f8610a41565b6040516103059190612683565b60405180910390f35b6103286004803603810190610323919061274d565b610acf565b60405161033591906127a8565b60405180910390f35b61035860048036038101906103539190612bb3565b610b0c565b005b610374600480360381019061036f9190612c0f565b610bbe565b005b610390600480360381019061038b9190612c87565b610bea565b60405161039d91906127d2565b60405180910390f35b6103c060048036038101906103bb9190612d8f565b610bf2565b6040516103cd91906127a8565b60405180910390f35b6103f060048036038101906103eb91906129c0565b6110cf565b005b61040c60048036038101906104079190612f4d565b611152565b60405161041991906127a8565b60405180910390f35b6003805461042f90612fe5565b80601f016020809104026020016040519081016040528092919081815260200182805461045b90612fe5565b80156104a85780601f1061047d576101008083540402835291602001916104a8565b820191906000526020600020905b81548152906001019060200180831161048b57829003601f168201915b505050505081565b60006040517f08c379a00000000000000000000000000000000000000000000000000000000081526004016104e490613062565b60405180910390fd5b60025481565b6104fb61246a565b6000600660008481526020019081526020016000206040518060a001604052908160008201548152602001600182015481526020016002820160009054906101000a900473ffffffffffffffffffffffffffffffffffffffff1673ffffffffffffffffffffffffffffffffffffffff1673ffffffffffffffffffffffffffffffffffffffff168152602001600382015481526020016004820160009054906101000a900460ff1615151515815250509050600073ffffffffffffffffffffffffffffffffffffffff16816040015173ffffffffffffffffffffffffffffffffffffffff160361061f576040517f08c379a0000000000000000000000000000000000000000000000000000000008152600401610616906130ce565b60405180910390fd5b80915050919050565b60006040517f08c379a000000000000000000000000000000000000000000000000000000000815260040161065c90613062565b60405180910390fd5b600560009054906101000a900460ff1681565b6106806113cb565b6000600660008481526020019081526020016000209050600073ffffffffffffffffffffffffffffffffffffffff168160020160009054906101000a900473ffffffffffffffffffffffffffffffffffffffff1673ffffffffffffffffffffffffffffffffffffffff160361072a576040517f08c379a0000000000000000000000000000000000000000000000000000000008152600401610721906130ce565b60405180910390fd5b818160040160006101000a81548160ff0219169083151502179055503373ffffffffffffffffffffffffffffffffffffffff167fb811e867f5c2ff08fd7a3010ce51ada05d246dd12806ce6cdbcaf358a3f52a36848460405161078e9291906130ee565b60405180910390a2505050565b6107a36113cb565b3373ffffffffffffffffffffffffffffffffffffffff16ff5b60016020528060005260406000206000915090505481565b6107dc6113cb565b6107e66000611449565b565b60008060009054906101000a900473ffffffffffffffffffffffffffffffffffffffff16905090565b600061081b6113cb565b6000600660008781526020019081526020016000209050600073ffffffffffffffffffffffffffffffffffffffff168160020160009054906101000a900473ffffffffffffffffffffffffffffffffffffffff1673ffffffffffffffffffffffffffffffffffffffff16146108c5576040517f08c379a00000000000000000000000000000000000000000000000000000000081526004016108bc90613163565b60405180910390fd5b848160010181905550838160000181905550338160020160006101000a81548173ffffffffffffffffffffffffffffffffffffffff021916908373ffffffffffffffffffffffffffffffffffffffff160217905550828160040160006101000a81548160ff0219169083151502179055503373ffffffffffffffffffffffffffffffffffffffff167fb811e867f5c2ff08fd7a3010ce51ada05d246dd12806ce6cdbcaf358a3f52a36878560405161097e9291906130ee565b60405180910390a250949350505050565b6109976113cb565b6000600860008473ffffffffffffffffffffffffffffffffffffffff1673ffffffffffffffffffffffffffffffffffffffff16815260200190815260200160002060006101000a81548160ff0219169083151502179055508173ffffffffffffffffffffffffffffffffffffffff167f3eef4c5d847ab21c7c10b3001aa7c8de40283957c1020ab558304a06f9963ae082604051610a359190612683565b60405180910390a25050565b60048054610a4e90612fe5565b80601f0160208091040260200160405190810160405280929190818152602001828054610a7a90612fe5565b8015610ac75780601f10610a9c57610100808354040283529160200191610ac7565b820191906000526020600020905b815481529060010190602001808311610aaa57829003601f168201915b505050505081565b60006040517f08c379a0000000000000000000000000000000000000000000000000000000008152600401610b0390613062565b60405180910390fd5b610b146113cb565b6001600860008473ffffffffffffffffffffffffffffffffffffffff1673ffffffffffffffffffffffffffffffffffffffff16815260200190815260200160002060006101000a81548160ff0219169083151502179055508173ffffffffffffffffffffffffffffffffffffffff167f3d92f547cc8abbd31e499954a4965ca4b813a72157e68da961d3a286193f016182604051610bb29190612683565b60405180910390a25050565b610bc66113cb565b8160039081610bd5919061332f565b508060049081610be5919061332f565b505050565b600092915050565b6000600860003373ffffffffffffffffffffffffffffffffffffffff1673ffffffffffffffffffffffffffffffffffffffff16815260200190815260200160002060009054906101000a900460ff1615610c81576040517f08c379a0000000000000000000000000000000000000000000000000000000008152600401610c789061344d565b60405180910390fd5b6000600660008581526020019081526020016000209050600073ffffffffffffffffffffffffffffffffffffffff168160020160009054906101000a900473ffffffffffffffffffffffffffffffffffffffff1673ffffffffffffffffffffffffffffffffffffffff1603610d2b576040517f08c379a0000000000000000000000000000000000000000000000000000000008152600401610d22906130ce565b60405180910390fd5b8060040160009054906101000a900460ff16610d7c576040517f08c379a0000000000000000000000000000000000000000000000000000000008152600401610d73906134b9565b60405180910390fd5b60008433604051602001610d91929190613542565b6040516020818303038152906040528051906020012090506007600082815260200190815260200160002060009054906101000a900460ff1615610e0a576040517f08c379a0000000000000000000000000000000000000000000000000000000008152600401610e01906135ba565b60405180910390fd5b60016007600083815260200190815260200160002060006101000a81548160ff0219169083151502179055506008845114610e7a576040517f08c379a0000000000000000000000000000000000000000000000000000000008152600401610e7190613626565b60405180910390fd5b6000604051806040016040528086600081518110610e9b57610e9a613646565b5b6020026020010151815260200186600181518110610ebc57610ebb613646565b5b6020026020010151815250905060006040518060400160405280604051806040016040528089600281518110610ef557610ef4613646565b5b6020026020010151815260200189600381518110610f1657610f15613646565b5b60200260200101518152508152602001604051806040016040528089600481518110610f4557610f44613646565b5b6020026020010151815260200189600581518110610f6657610f65613646565b5b602002602001015181525081525090506000604051806040016040528088600681518110610f9757610f96613646565b5b6020026020010151815260200188600781518110610fb857610fb7613646565b5b6020026020010151815250905060006040518060400160405280876000015481526020013373ffffffffffffffffffffffffffffffffffffffff16815250905061100484848484611152565b611043576040517f08c379a000000000000000000000000000000000000000000000000000000000815260040161103a906136c1565b60405180910390fd5b611050866001015461150d565b5085600301600081548092919061106690613710565b91905055503373ffffffffffffffffffffffffffffffffffffffff167f5b6a465f0ccc269fa7890919ee11a00bf9fed8fa25f1e7bd49bdc7d610ba8daf8a88600101546040516110b7929190613758565b60405180910390a26001965050505050505092915050565b6110d76113cb565b600073ffffffffffffffffffffffffffffffffffffffff168173ffffffffffffffffffffffffffffffffffffffff1603611146576040517f08c379a000000000000000000000000000000000000000000000000000000000815260040161113d906137f3565b60405180910390fd5b61114f81611449565b50565b600061115c6124b1565b60405180604001604052808760006002811061117b5761117a613646565b5b602002015181526020018760016002811061119957611198613646565b5b6020020151815250816000018190525060405180604001604052806040518060400160405280886000600281106111d3576111d2613646565b5b60200201516000600281106111eb576111ea613646565b5b602002015181526020018860006002811061120957611208613646565b5b602002015160016002811061122157611220613646565b5b6020020151815250815260200160405180604001604052808860016002811061124d5761124c613646565b5b602002015160006002811061126557611264613646565b5b602002015181526020018860016002811061128357611282613646565b5b602002015160016002811061129b5761129a613646565b5b602002015181525081525081602001819052506040518060400160405280856000600281106112cd576112cc613646565b5b60200201518152602001856001600281106112eb576112ea613646565b5b602002015181525081604001819052506000600267ffffffffffffffff81111561131857611317612a88565b5b6040519080825280602002602001820160405280156113465781602001602082028036833780820191505090505b50905060005b600281101561139f5784816002811061136857611367613646565b5b60200201518282815181106113805761137f613646565b5b602002602001018181525050808061139790613710565b91505061134c565b5060006113ac82846115e9565b036113bc576001925050506113c3565b6000925050505b949350505050565b6113d36117dc565b73ffffffffffffffffffffffffffffffffffffffff166113f16107e8565b73ffffffffffffffffffffffffffffffffffffffff1614611447576040517f08c379a000000000000000000000000000000000000000000000000000000000815260040161143e9061385f565b60405180910390fd5b565b60008060009054906101000a900473ffffffffffffffffffffffffffffffffffffffff169050816000806101000a81548173ffffffffffffffffffffffffffffffffffffffff021916908373ffffffffffffffffffffffffffffffffffffffff1602179055508173ffffffffffffffffffffffffffffffffffffffff168173ffffffffffffffffffffffffffffffffffffffff167f8be0079c531659141344cd1fd0a4f28419497f9722a3daafe3b4186f6b6457e060405160405180910390a35050565b600081600160003373ffffffffffffffffffffffffffffffffffffffff1673ffffffffffffffffffffffffffffffffffffffff168152602001908152602001600020600082825461155e919061387f565b925050819055508160026000828254611577919061387f565b925050819055503373ffffffffffffffffffffffffffffffffffffffff16600073ffffffffffffffffffffffffffffffffffffffff167fddf252ad1be2c89b69c2b068fc378daa952ba7f163c4a11628f55a4df523b3ef846040516115dc91906127d2565b60405180910390a3919050565b6000807f30644e72e131a029b85045b68181585d2833e84879b9709143e1f593f0000001905060006116196117e4565b90508060800151516001865161162f919061387f565b1461166f576040517f08c379a0000000000000000000000000000000000000000000000000000000008152600401611666906138ff565b60405180910390fd5b60006040518060400160405280600081526020016000815250905060005b865181101561175e57838782815181106116aa576116a9613646565b5b6020026020010151106116f2576040517f08c379a00000000000000000000000000000000000000000000000000000000081526004016116e99061396b565b60405180910390fd5b61174982611744856080015160018561170b919061387f565b8151811061171c5761171b613646565b5b60200260200101518a858151811061173757611736613646565b5b6020026020010151611c60565b611d38565b9150808061175690613710565b91505061168d565b5061178881836080015160008151811061177b5761177a613646565b5b6020026020010151611d38565b90506117be61179a8660000151611e36565b8660200151846000015185602001518587604001518b604001518960600151611edb565b6117ce57600193505050506117d6565b600093505050505b92915050565b600033905090565b6117ec6124e4565b60405180604001604052807f132753f20a0a77867839b76d2eac51405cde96907e2fa539baa976b69e431d7181526020017f1fceeca330226123449e255adab37be0dc89c115ecc474219d4f8506948bf6928152508160000181905250604051806040016040528060405180604001604052807f1180e97f219d0df6fc6454723f0e9f55050bae7891a68bbf9a5f4986592a670b81526020017f0cf72bb81b699e704af9a39f0f15c583a83e58bf2fb42e6ba773316fa0462ce2815250815260200160405180604001604052807f0f52f5abcb92a94eadfeb5290eec08348250e8de96ea8ef331e64f718975403a81526020017f252275ac27b17864696ec3a105ec3fa0e91a7c076b7213882a213b4be2a695d68152508152508160200181905250604051806040016040528060405180604001604052807f198e9393920d483a7260bfb731fb5d25f1aa493335a9e71297e485b7aef312c281526020017f1800deef121f1e76426a00665e5c4479674322d4f75edadd46debd5cd992f6ed815250815260200160405180604001604052807f090689d0585ff075ec9e99ad690c3395bc4b313370b38ef355acdadcd122975b81526020017f12c85ea5db8c6deb4aab71808dcb408fe3d1e7690c43d37b4ce6cc0166fa7daa8152508152508160400181905250604051806040016040528060405180604001604052807f0f877d3762458500ce3634bc2a237e1296183f92ca69e1c1ee9b8b9d0ecb28ac81526020017f132f19cc515ea9b544dc8bfc496921b9fc80baf7a226f20feaf5c5d04f7321a4815250815260200160405180604001604052807f1672ea6f6541a03c23f631aac0784b5324f4aafc9b6c48cbc9ae04993abb573281526020017f0aa5d8b9235f19628dd9384d68fcf4a156a90f4d1c725f4ba73cca6a95c9bc588152508152508160600181905250600367ffffffffffffffff811115611ab357611ab2612a88565b5b604051908082528060200260200182016040528015611aec57816020015b611ad961252b565b815260200190600190039081611ad15790505b50816080018190525060405180604001604052807f13c97d63af0024b9f359815ba3f1f91c598d9242249b0756f44d3e7365d4a9c881526020017f2ec84afc1be73f440edc8c97281aec56551e5131a1d8ed810ed0fad57128a42c8152508160800151600081518110611b6257611b61613646565b5b602002602001018190525060405180604001604052807f049e17a81e3f835106a16fcac32e96e912a5c14512604cb009654bcc6ad0082681526020017f1840fdf6c184a2c39e5a1d4d8060691c247e5406dd9a95bd1d62c2deb3fd2a9c8152508160800151600181518110611bda57611bd9613646565b5b602002602001018190525060405180604001604052807f02a76f4e0f4f93c55da0c1be2eb5f3f70de9a3346ccabcd7e3d0bb7a24f95b8f81526020017f03b76ba7c5b022d5ccc5d2e857461e2c8ca20b81551fec3d96a2925b7e3fee1e8152508160800151600281518110611c5257611c51613646565b5b602002602001018190525090565b611c6861252b565b611c70612545565b836000015181600060038110611c8957611c88613646565b5b602002018181525050836020015181600160038110611cab57611caa613646565b5b6020020181815250508281600260038110611cc957611cc8613646565b5b602002018181525050600060608360808460076107d05a03fa90508060008103611cef57fe5b5080611d30576040517f08c379a0000000000000000000000000000000000000000000000000000000008152600401611d27906139d7565b60405180910390fd5b505092915050565b611d4061252b565b611d48612567565b836000015181600060048110611d6157611d60613646565b5b602002018181525050836020015181600160048110611d8357611d82613646565b5b602002018181525050826000015181600260048110611da557611da4613646565b5b602002018181525050826020015181600360048110611dc757611dc6613646565b5b602002018181525050600060608360c08460066107d05a03fa90508060008103611ded57fe5b5080611e2e576040517f08c379a0000000000000000000000000000000000000000000000000000000008152600401611e2590613a43565b60405180910390fd5b505092915050565b611e3e61252b565b60007f30644e72e131a029b85045b68181585d97816a916871ca8d3c208c16d87cfd47905060008360000151148015611e7b575060008360200151145b15611e9f576040518060400160405280600081526020016000815250915050611ed6565b604051806040016040528084600001518152602001828560200151611ec49190613a92565b83611ecf9190613ac3565b8152509150505b919050565b600080600467ffffffffffffffff811115611ef957611ef8612a88565b5b604051908082528060200260200182016040528015611f3257816020015b611f1f61252b565b815260200190600190039081611f175790505b5090506000600467ffffffffffffffff811115611f5257611f51612a88565b5b604051908082528060200260200182016040528015611f8b57816020015b611f78612589565b815260200190600190039081611f705790505b5090508a82600081518110611fa357611fa2613646565b5b60200260200101819052508882600181518110611fc357611fc2613646565b5b60200260200101819052508682600281518110611fe357611fe2613646565b5b6020026020010181905250848260038151811061200357612002613646565b5b6020026020010181905250898160008151811061202357612022613646565b5b6020026020010181905250878160018151811061204357612042613646565b5b6020026020010181905250858160028151811061206357612062613646565b5b6020026020010181905250838160038151811061208357612082613646565b5b602002602001018190525061209882826120a8565b9250505098975050505050505050565b600081518351146120ee576040517f08c379a00000000000000000000000000000000000000000000000000000000081526004016120e590613b43565b60405180910390fd5b60008351905060006006826121039190613b63565b905060008167ffffffffffffffff81111561212157612120612a88565b5b60405190808252806020026020018201604052801561214f5781602001602082028036833780820191505090505b50905060005b838110156123d4578681815181106121705761216f613646565b5b60200260200101516000015182600060068461218c9190613b63565b612196919061387f565b815181106121a7576121a6613646565b5b6020026020010181815250508681815181106121c6576121c5613646565b5b6020026020010151602001518260016006846121e29190613b63565b6121ec919061387f565b815181106121fd576121fc613646565b5b60200260200101818152505085818151811061221c5761221b613646565b5b60200260200101516000015160006002811061223b5761223a613646565b5b60200201518260026006846122509190613b63565b61225a919061387f565b8151811061226b5761226a613646565b5b60200260200101818152505085818151811061228a57612289613646565b5b6020026020010151600001516001600281106122a9576122a8613646565b5b60200201518260036006846122be9190613b63565b6122c8919061387f565b815181106122d9576122d8613646565b5b6020026020010181815250508581815181106122f8576122f7613646565b5b60200260200101516020015160006002811061231757612316613646565b5b602002015182600460068461232c9190613b63565b612336919061387f565b8151811061234757612346613646565b5b60200260200101818152505085818151811061236657612365613646565b5b60200260200101516020015160016002811061238557612384613646565b5b602002015182600560068461239a9190613b63565b6123a4919061387f565b815181106123b5576123b4613646565b5b60200260200101818152505080806123cc90613710565b915050612155565b506123dd6125af565b6000602082602086026020860160086107d05a03fa905080600081036123ff57fe5b5080612440576040517f08c379a000000000000000000000000000000000000000000000000000000000815260040161243790613bf1565b60405180910390fd5b60008260006001811061245657612455613646565b5b602002015114159550505050505092915050565b6040518060a001604052806000815260200160008152602001600073ffffffffffffffffffffffffffffffffffffffff168152602001600081526020016000151581525090565b60405180606001604052806124c461252b565b81526020016124d1612589565b81526020016124de61252b565b81525090565b6040518060a001604052806124f761252b565b8152602001612504612589565b8152602001612511612589565b815260200161251e612589565b8152602001606081525090565b604051806040016040528060008152602001600081525090565b6040518060600160405280600390602082028036833780820191505090505090565b6040518060800160405280600490602082028036833780820191505090505090565b604051806040016040528061259c6125d1565b81526020016125a96125d1565b81525090565b6040518060200160405280600190602082028036833780820191505090505090565b6040518060400160405280600290602082028036833780820191505090505090565b600081519050919050565b600082825260208201905092915050565b60005b8381101561262d578082015181840152602081019050612612565b60008484015250505050565b6000601f19601f8301169050919050565b6000612655826125f3565b61265f81856125fe565b935061266f81856020860161260f565b61267881612639565b840191505092915050565b6000602082019050818103600083015261269d818461264a565b905092915050565b6000604051905090565b600080fd5b600080fd5b600073ffffffffffffffffffffffffffffffffffffffff82169050919050565b60006126e4826126b9565b9050919050565b6126f4816126d9565b81146126ff57600080fd5b50565b600081359050612711816126eb565b92915050565b6000819050919050565b61272a81612717565b811461273557600080fd5b50565b60008135905061274781612721565b92915050565b60008060408385031215612764576127636126af565b5b600061277285828601612702565b925050602061278385828601612738565b9150509250929050565b60008115159050919050565b6127a28161278d565b82525050565b60006020820190506127bd6000830184612799565b92915050565b6127cc81612717565b82525050565b60006020820190506127e760008301846127c3565b92915050565b600060208284031215612803576128026126af565b5b600061281184828501612738565b91505092915050565b61282381612717565b82525050565b612832816126d9565b82525050565b6128418161278d565b82525050565b60a08201600082015161285d600085018261281a565b506020820151612870602085018261281a565b5060408201516128836040850182612829565b506060820151612896606085018261281a565b5060808201516128a96080850182612838565b50505050565b600060a0820190506128c46000830184612847565b92915050565b6000806000606084860312156128e3576128e26126af565b5b60006128f186828701612702565b935050602061290286828701612702565b925050604061291386828701612738565b9150509250925092565b600060ff82169050919050565b6129338161291d565b82525050565b600060208201905061294e600083018461292a565b92915050565b61295d8161278d565b811461296857600080fd5b50565b60008135905061297a81612954565b92915050565b60008060408385031215612997576129966126af565b5b60006129a585828601612738565b92505060206129b68582860161296b565b9150509250929050565b6000602082840312156129d6576129d56126af565b5b60006129e484828501612702565b91505092915050565b6129f6816126d9565b82525050565b6000602082019050612a1160008301846129ed565b92915050565b60008060008060808587031215612a3157612a306126af565b5b6000612a3f87828801612738565b9450506020612a5087828801612738565b9350506040612a6187828801612738565b9250506060612a728782880161296b565b91505092959194509250565b600080fd5b600080fd5b7f4e487b7100000000000000000000000000000000000000000000000000000000600052604160045260246000fd5b612ac082612639565b810181811067ffffffffffffffff82111715612adf57612ade612a88565b5b80604052505050565b6000612af26126a5565b9050612afe8282612ab7565b919050565b600067ffffffffffffffff821115612b1e57612b1d612a88565b5b612b2782612639565b9050602081019050919050565b82818337600083830152505050565b6000612b56612b5184612b03565b612ae8565b905082815260208101848484011115612b7257612b71612a83565b5b612b7d848285612b34565b509392505050565b600082601f830112612b9a57612b99612a7e565b5b8135612baa848260208601612b43565b91505092915050565b60008060408385031215612bca57612bc96126af565b5b6000612bd885828601612702565b925050602083013567ffffffffffffffff811115612bf957612bf86126b4565b5b612c0585828601612b85565b9150509250929050565b60008060408385031215612c2657612c256126af565b5b600083013567ffffffffffffffff811115612c4457612c436126b4565b5b612c5085828601612b85565b925050602083013567ffffffffffffffff811115612c7157612c706126b4565b5b612c7d85828601612b85565b9150509250929050565b60008060408385031215612c9e57612c9d6126af565b5b6000612cac85828601612702565b9250506020612cbd85828601612702565b9150509250929050565b600067ffffffffffffffff821115612ce257612ce1612a88565b5b602082029050602081019050919050565b600080fd5b6000612d0b612d0684612cc7565b612ae8565b90508083825260208201905060208402830185811115612d2e57612d2d612cf3565b5b835b81811015612d575780612d438882612738565b845260208401935050602081019050612d30565b5050509392505050565b600082601f830112612d7657612d75612a7e565b5b8135612d86848260208601612cf8565b91505092915050565b60008060408385031215612da657612da56126af565b5b6000612db485828601612738565b925050602083013567ffffffffffffffff811115612dd557612dd46126b4565b5b612de185828601612d61565b9150509250929050565b600067ffffffffffffffff821115612e0657612e05612a88565b5b602082029050919050565b6000612e24612e1f84612deb565b612ae8565b90508060208402830185811115612e3e57612e3d612cf3565b5b835b81811015612e675780612e538882612738565b845260208401935050602081019050612e40565b5050509392505050565b600082601f830112612e8657612e85612a7e565b5b6002612e93848285612e11565b91505092915050565b600067ffffffffffffffff821115612eb757612eb6612a88565b5b602082029050919050565b6000612ed5612ed084612e9c565b612ae8565b90508060408402830185811115612eef57612eee612cf3565b5b835b81811015612f185780612f048882612e71565b845260208401935050604081019050612ef1565b5050509392505050565b600082601f830112612f3757612f36612a7e565b5b6002612f44848285612ec2565b91505092915050565b6000806000806101408587031215612f6857612f676126af565b5b6000612f7687828801612e71565b9450506040612f8787828801612f22565b93505060c0612f9887828801612e71565b925050610100612faa87828801612e71565b91505092959194509250565b7f4e487b7100000000000000000000000000000000000000000000000000000000600052602260045260246000fd5b60006002820490506001821680612ffd57607f821691505b6020821081036130105761300f612fb6565b5b50919050565b7f4e4f545f535550504f5254454400000000000000000000000000000000000000600082015250565b600061304c600d836125fe565b915061305782613016565b602082019050919050565b6000602082019050818103600083015261307b8161303f565b9050919050565b7f4348414c4c454e47455f4e4f545f464f554e4400000000000000000000000000600082015250565b60006130b86013836125fe565b91506130c382613082565b602082019050919050565b600060208201905081810360008301526130e7816130ab565b9050919050565b600060408201905061310360008301856127c3565b6131106020830184612799565b9392505050565b7f4348414c4c454e47455f414c52454144595f4558495354530000000000000000600082015250565b600061314d6018836125fe565b915061315882613117565b602082019050919050565b6000602082019050818103600083015261317c81613140565b9050919050565b60008190508160005260206000209050919050565b60006020601f8301049050919050565b600082821b905092915050565b6000600883026131e57fffffffffffffffffffffffffffffffffffffffffffffffffffffffffffffffff826131a8565b6131ef86836131a8565b95508019841693508086168417925050509392505050565b6000819050919050565b600061322c61322761322284612717565b613207565b612717565b9050919050565b6000819050919050565b61324683613211565b61325a61325282613233565b8484546131b5565b825550505050565b600090565b61326f613262565b61327a81848461323d565b505050565b5b8181101561329e57613293600082613267565b600181019050613280565b5050565b601f8211156132e3576132b481613183565b6132bd84613198565b810160208510156132cc578190505b6132e06132d885613198565b83018261327f565b50505b505050565b600082821c905092915050565b6000613306600019846008026132e8565b1980831691505092915050565b600061331f83836132f5565b9150826002028217905092915050565b613338826125f3565b67ffffffffffffffff81111561335157613350612a88565b5b61335b8254612fe5565b6133668282856132a2565b600060209050601f8311600181146133995760008415613387578287015190505b6133918582613313565b8655506133f9565b601f1984166133a786613183565b60005b828110156133cf578489015182556001820191506020850194506020810190506133aa565b868310156133ec57848901516133e8601f8916826132f5565b8355505b6001600288020188555050505b505050505050565b7f594f555f4152455f42414e4e4544000000000000000000000000000000000000600082015250565b6000613437600e836125fe565b915061344282613401565b602082019050919050565b600060208201905081810360008301526134668161342a565b9050919050565b7f4348414c4c454e47455f4e4f545f415641494c41424c45000000000000000000600082015250565b60006134a36017836125fe565b91506134ae8261346d565b602082019050919050565b600060208201905081810360008301526134d281613496565b9050919050565b6000819050919050565b6134f46134ef82612717565b6134d9565b82525050565b60008160601b9050919050565b6000613512826134fa565b9050919050565b600061352482613507565b9050919050565b61353c613537826126d9565b613519565b82525050565b600061354e82856134e3565b60208201915061355e828461352b565b6014820191508190509392505050565b7f414c52454144595f534f4c564544000000000000000000000000000000000000600082015250565b60006135a4600e836125fe565b91506135af8261356e565b602082019050919050565b600060208201905081810360008301526135d381613597565b9050919050565b7f494e56414c49445f50524f4f465f4c454e475448000000000000000000000000600082015250565b60006136106014836125fe565b915061361b826135da565b602082019050919050565b6000602082019050818103600083015261363f81613603565b9050919050565b7f4e487b7100000000000000000000000000000000000000000000000000000000600052603260045260246000fd5b7f4641494c45445f544f5f5645524946595f50524f4f4600000000000000000000600082015250565b60006136ab6016836125fe565b91506136b682613675565b602082019050919050565b600060208201905081810360008301526136da8161369e565b9050919050565b7f4e487b7100000000000000000000000000000000000000000000000000000000600052601160045260246000fd5b600061371b82612717565b91507fffffffffffffffffffffffffffffffffffffffffffffffffffffffffffffffff820361374d5761374c6136e1565b5b600182019050919050565b600060408201905061376d60008301856127c3565b61377a60208301846127c3565b9392505050565b7f4f776e61626c653a206e6577206f776e657220697320746865207a65726f206160008201527f6464726573730000000000000000000000000000000000000000000000000000602082015250565b60006137dd6026836125fe565b91506137e882613781565b604082019050919050565b6000602082019050818103600083015261380c816137d0565b9050919050565b7f4f776e61626c653a2063616c6c6572206973206e6f7420746865206f776e6572600082015250565b60006138496020836125fe565b915061385482613813565b602082019050919050565b600060208201905081810360008301526138788161383c565b9050919050565b600061388a82612717565b915061389583612717565b92508282019050808211156138ad576138ac6136e1565b5b92915050565b7f76657269666965722d6261642d696e7075740000000000000000000000000000600082015250565b60006138e96012836125fe565b91506138f4826138b3565b602082019050919050565b60006020820190508181036000830152613918816138dc565b9050919050565b7f76657269666965722d6774652d736e61726b2d7363616c61722d6669656c6400600082015250565b6000613955601f836125fe565b91506139608261391f565b602082019050919050565b6000602082019050818103600083015261398481613948565b9050919050565b7f70616972696e672d6d756c2d6661696c65640000000000000000000000000000600082015250565b60006139c16012836125fe565b91506139cc8261398b565b602082019050919050565b600060208201905081810360008301526139f0816139b4565b9050919050565b7f70616972696e672d6164642d6661696c65640000000000000000000000000000600082015250565b6000613a2d6012836125fe565b9150613a38826139f7565b602082019050919050565b60006020820190508181036000830152613a5c81613a20565b9050919050565b7f4e487b7100000000000000000000000000000000000000000000000000000000600052601260045260246000fd5b6000613a9d82612717565b9150613aa883612717565b925082613ab857613ab7613a63565b5b828206905092915050565b6000613ace82612717565b9150613ad983612717565b9250828203905081811115613af157613af06136e1565b5b92915050565b7f70616972696e672d6c656e677468732d6661696c656400000000000000000000600082015250565b6000613b2d6016836125fe565b9150613b3882613af7565b602082019050919050565b60006020820190508181036000830152613b5c81613b20565b9050919050565b6000613b6e82612717565b9150613b7983612717565b9250828202613b8781612717565b91508282048414831517613b9e57613b9d6136e1565b5b5092915050565b7f70616972696e672d6f70636f64652d6661696c65640000000000000000000000600082015250565b6000613bdb6015836125fe565b9150613be682613ba5565b602082019050919050565b60006020820190508181036000830152613c0a81613bce565b905091905056fea26469706673582212205a93a0cf57dae10f12d9511341a299283236ff5323a3a447f60093b9a2609fb164736f6c63430008110033",
  "linkReferences": {},
  "deployedLinkReferences": {}
}